{
  "contractName": "election",
  "abi": [
    {
      "constant": true,
      "inputs": [
        {
          "name": "",
          "type": "uint256"
        }
      ],
      "name": "candidates",
      "outputs": [
        {
          "name": "name",
          "type": "string"
        },
        {
          "name": "voteCount",
          "type": "uint256"
        },
        {
          "name": "region",
          "type": "string"
        },
        {
          "name": "party",
          "type": "string"
        }
      ],
      "payable": false,
      "stateMutability": "view",
      "type": "function"
    },
    {
      "constant": true,
      "inputs": [
        {
          "name": "",
          "type": "uint256"
        }
      ],
      "name": "verif_lst",
      "outputs": [
        {
          "name": "voted",
          "type": "uint256"
        },
        {
          "name": "adhaar",
          "type": "string"
        }
      ],
      "payable": false,
      "stateMutability": "view",
      "type": "function"
    },
    {
      "constant": true,
      "inputs": [],
      "name": "electionName",
      "outputs": [
        {
          "name": "",
          "type": "string"
        }
      ],
      "payable": false,
      "stateMutability": "view",
      "type": "function"
    },
    {
      "constant": true,
      "inputs": [],
      "name": "owner",
      "outputs": [
        {
          "name": "",
          "type": "address"
        }
      ],
      "payable": false,
      "stateMutability": "view",
      "type": "function"
    },
    {
      "constant": true,
      "inputs": [
        {
          "name": "",
          "type": "address"
        }
      ],
      "name": "voters",
      "outputs": [
        {
          "name": "authorized",
          "type": "bool"
        },
        {
          "name": "voted",
          "type": "bool"
        },
        {
          "name": "vote",
          "type": "uint256"
        }
      ],
      "payable": false,
      "stateMutability": "view",
      "type": "function"
    },
    {
      "inputs": [],
      "payable": false,
      "stateMutability": "nonpayable",
      "type": "constructor"
    },
    {
      "anonymous": false,
      "inputs": [
        {
          "indexed": false,
          "name": "candidateName",
          "type": "string"
        },
        {
          "indexed": false,
          "name": "voteCount",
          "type": "uint256"
        },
        {
          "indexed": false,
          "name": "region",
          "type": "string"
        },
        {
          "indexed": false,
          "name": "party",
          "type": "string"
        }
      ],
      "name": "ElectionResult",
      "type": "event"
    },
    {
      "constant": false,
      "inputs": [
        {
          "name": "_adharr",
          "type": "string"
        }
      ],
      "name": "aadhar_user",
      "outputs": [],
      "payable": false,
      "stateMutability": "nonpayable",
      "type": "function"
    },
    {
      "constant": true,
      "inputs": [
        {
          "name": "_adharr",
          "type": "string"
        }
      ],
      "name": "get_adhaar_status",
      "outputs": [
        {
          "name": "",
          "type": "string"
        }
      ],
      "payable": false,
      "stateMutability": "view",
      "type": "function"
    },
    {
      "constant": false,
      "inputs": [
        {
          "name": "name",
          "type": "string"
        },
        {
          "name": "region",
          "type": "string"
        },
        {
          "name": "party",
          "type": "string"
        }
      ],
      "name": "addCandidate",
      "outputs": [],
      "payable": false,
      "stateMutability": "nonpayable",
      "type": "function"
    },
    {
      "constant": false,
      "inputs": [
        {
          "name": "person",
          "type": "address"
        }
      ],
      "name": "authorize",
      "outputs": [],
      "payable": false,
      "stateMutability": "nonpayable",
      "type": "function"
    },
    {
      "constant": false,
      "inputs": [
        {
          "name": "_cname",
          "type": "string"
        },
        {
          "name": "_region",
          "type": "string"
        },
        {
          "name": "_party",
          "type": "string"
        }
      ],
      "name": "vote",
      "outputs": [],
      "payable": false,
      "stateMutability": "nonpayable",
      "type": "function"
    },
    {
      "constant": true,
      "inputs": [],
      "name": "get_no_candidates",
      "outputs": [
        {
          "name": "",
          "type": "uint256"
        }
      ],
      "payable": false,
      "stateMutability": "view",
      "type": "function"
    },
    {
      "constant": false,
      "inputs": [],
      "name": "end",
      "outputs": [],
      "payable": false,
      "stateMutability": "nonpayable",
      "type": "function"
    }
  ],
  "bytecode": "0x60806040526000805534801561001457600080fd5b5033600260006101000a81548173ffffffffffffffffffffffffffffffffffffffff021916908373ffffffffffffffffffffffffffffffffffffffff16021790555061192f806100656000396000f3006080604052600436106100ba576000357c0100000000000000000000000000000000000000000000000000000000900463ffffffff1680633477ee2e146100bf5780634d06abf4146100ff57806360048c171461012857806385e8e7a7146101665780638da5cb5b1461019157806395f59fe1146101bc578063a3ec138d146101e5578063ad71f8dc14610224578063b6a5d7de1461024d578063d164956d14610276578063efbe1c1c146102b3578063f744a532146102ca575b600080fd5b3480156100cb57600080fd5b506100e660048036036100e191908101906114e4565b6102f5565b6040516100f694939291906116c2565b60405180910390f35b34801561010b57600080fd5b506101266004803603610121919081019061140c565b6104fc565b005b34801561013457600080fd5b5061014f600480360361014a91908101906114e4565b6106f5565b60405161015d929190611791565b60405180910390f35b34801561017257600080fd5b5061017b6107c0565b604051610188919061167e565b60405180910390f35b34801561019d57600080fd5b506101a661085e565b6040516101b3919061162c565b60405180910390f35b3480156101c857600080fd5b506101e360048036036101de919081019061144d565b610884565b005b3480156101f157600080fd5b5061020c600480360361020791908101906113e3565b610d2a565b60405161021b93929190611647565b60405180910390f35b34801561023057600080fd5b5061024b6004803603610246919081019061144d565b610d6e565b005b34801561025957600080fd5b50610274600480360361026f91908101906113e3565b610e83565b005b34801561028257600080fd5b5061029d6004803603610298919081019061140c565b610f3d565b6040516102aa91906116a0565b60405180910390f35b3480156102bf57600080fd5b506102c8611141565b005b3480156102d657600080fd5b506102df6112b3565b6040516102ec9190611776565b60405180910390f35b60058181548110151561030457fe5b9060005260206000209060040201600091509050806000018054600181600116156101000203166002900480601f0160208091040260200160405190810160405280929190818152602001828054600181600116156101000203166002900480156103b05780601f10610385576101008083540402835291602001916103b0565b820191906000526020600020905b81548152906001019060200180831161039357829003601f168201915b505050505090806001015490806002018054600181600116156101000203166002900480601f0160208091040260200160405190810160405280929190818152602001828054600181600116156101000203166002900480156104545780601f1061042957610100808354040283529160200191610454565b820191906000526020600020905b81548152906001019060200180831161043757829003601f168201915b505050505090806003018054600181600116156101000203166002900480601f0160208091040260200160405190810160405280929190818152602001828054600181600116156101000203166002900480156104f25780601f106104c7576101008083540402835291602001916104f2565b820191906000526020600020905b8154815290600101906020018083116104d557829003601f168201915b5050505050905084565b600080600260009054906101000a900473ffffffffffffffffffffffffffffffffffffffff1673ffffffffffffffffffffffffffffffffffffffff163373ffffffffffffffffffffffffffffffffffffffff1614151561055b57600080fd5b600090505b60018054905081101561067857826040518082805190602001908083835b6020831015156105a3578051825260208201915060208101905060208303925061057e565b6001836020036101000a0380198251168184511680821785525050505050509050019150506040518091039020600019166001828154811015156105e357fe5b9060005260206000209060020201600101604051808280546001816001161561010002031660029004801561064f5780601f1061062d57610100808354040283529182019161064f565b820191906000526020600020905b81548152906001019060200180831161063b575b5050915050604051809103902060001916141561066b57600191505b8080600101915050610560565b6001821415156106f057600160408051908101604052806001815260200185815250908060018154018082558091505090600182039060005260206000209060020201600090919290919091506000820151816000015560208201518160010190805190602001906106eb9291906112c0565b505050505b505050565b60018181548110151561070457fe5b9060005260206000209060020201600091509050806000015490806001018054600181600116156101000203166002900480601f0160208091040260200160405190810160405280929190818152602001828054600181600116156101000203166002900480156107b65780601f1061078b576101008083540402835291602001916107b6565b820191906000526020600020905b81548152906001019060200180831161079957829003601f168201915b5050505050905082565b60038054600181600116156101000203166002900480601f0160208091040260200160405190810160405280929190818152602001828054600181600116156101000203166002900480156108565780601f1061082b57610100808354040283529160200191610856565b820191906000526020600020905b81548152906001019060200180831161083957829003601f168201915b505050505081565b600260009054906101000a900473ffffffffffffffffffffffffffffffffffffffff1681565b600080600460003373ffffffffffffffffffffffffffffffffffffffff1673ffffffffffffffffffffffffffffffffffffffff16815260200190815260200160002060000160019054906101000a900460ff161515156108e357600080fd5b600460003373ffffffffffffffffffffffffffffffffffffffff1673ffffffffffffffffffffffffffffffffffffffff16815260200190815260200160002060000160009054906101000a900460ff16151561093e57600080fd5b60009150600090505b600580549050811015610c5257836040518082805190602001908083835b60208310151561098a5780518252602082019150602081019050602083039250610965565b6001836020036101000a0380198251168184511680821785525050505050509050019150506040518091039020600019166005828154811015156109ca57fe5b90600052602060002090600402016002016040518082805460018160011615610100020316600290048015610a365780601f10610a14576101008083540402835291820191610a36565b820191906000526020600020905b815481529060010190602001808311610a22575b50509150506040518091039020600019161415610c4557846040518082805190602001908083835b602083101515610a835780518252602082019150602081019050602083039250610a5e565b6001836020036101000a038019825116818451168082178552505050505050905001915050604051809103902060001916600582815481101515610ac357fe5b90600052602060002090600402016000016040518082805460018160011615610100020316600290048015610b2f5780601f10610b0d576101008083540402835291820191610b2f565b820191906000526020600020905b815481529060010190602001808311610b1b575b50509150506040518091039020600019161415610c4457826040518082805190602001908083835b602083101515610b7c5780518252602082019150602081019050602083039250610b57565b6001836020036101000a038019825116818451168082178552505050505050905001915050604051809103902060001916600582815481101515610bbc57fe5b90600052602060002090600402016003016040518082805460018160011615610100020316600290048015610c285780601f10610c06576101008083540402835291820191610c28565b820191906000526020600020905b815481529060010190602001808311610c14575b50509150506040518091039020600019161415610c43578091505b5b5b8080600101915050610947565b81600460003373ffffffffffffffffffffffffffffffffffffffff1673ffffffffffffffffffffffffffffffffffffffff168152602001908152602001600020600101819055506001600460003373ffffffffffffffffffffffffffffffffffffffff1673ffffffffffffffffffffffffffffffffffffffff16815260200190815260200160002060000160016101000a81548160ff0219169083151502179055506001600583815481101515610d0557fe5b9060005260206000209060040201600101600082825401925050819055505050505050565b60046020528060005260406000206000915090508060000160009054906101000a900460ff16908060000160019054906101000a900460ff16908060010154905083565b600260009054906101000a900473ffffffffffffffffffffffffffffffffffffffff1673ffffffffffffffffffffffffffffffffffffffff163373ffffffffffffffffffffffffffffffffffffffff16141515610dca57600080fd5b60056080604051908101604052808581526020016000815260200184815260200183815250908060018154018082558091505090600182039060005260206000209060040201600090919290919091506000820151816000019080519060200190610e369291906112c0565b50602082015181600101556040820151816002019080519060200190610e5d9291906112c0565b506060820151816003019080519060200190610e7a9291906112c0565b50505050505050565b600260009054906101000a900473ffffffffffffffffffffffffffffffffffffffff1673ffffffffffffffffffffffffffffffffffffffff163373ffffffffffffffffffffffffffffffffffffffff16141515610edf57600080fd5b6001600460008373ffffffffffffffffffffffffffffffffffffffff1673ffffffffffffffffffffffffffffffffffffffff16815260200190815260200160002060000160006101000a81548160ff02191690831515021790555050565b6060600080600260009054906101000a900473ffffffffffffffffffffffffffffffffffffffff1673ffffffffffffffffffffffffffffffffffffffff163373ffffffffffffffffffffffffffffffffffffffff16141515610f9e57600080fd5b600090505b6001805490508110156110bb57836040518082805190602001908083835b602083101515610fe65780518252602082019150602081019050602083039250610fc1565b6001836020036101000a03801982511681845116808217855250505050505090500191505060405180910390206000191660018281548110151561102657fe5b906000526020600020906002020160010160405180828054600181600116156101000203166002900480156110925780601f10611070576101008083540402835291820191611092565b820191906000526020600020905b81548152906001019060200180831161107e575b505091505060405180910390206000191614156110ae57600191505b8080600101915050610fa3565b6001821415611101576040805190810160405280601681526020017f596f75204861766520616c726561647920566f74656400000000000000000000815250925061113a565b6040805190810160405280600981526020017f4e6f7420566f746564000000000000000000000000000000000000000000000081525092505b5050919050565b6000600260009054906101000a900473ffffffffffffffffffffffffffffffffffffffff1673ffffffffffffffffffffffffffffffffffffffff163373ffffffffffffffffffffffffffffffffffffffff1614151561119f57600080fd5b600090505b600580549050811015611278577f0dd41769c83854d1618e98de464bb6b85cbb2245f0b574bc60e2172567a459c76005828154811015156111e157fe5b906000526020600020906004020160000160058381548110151561120157fe5b90600052602060002090600402016001015460058481548110151561122257fe5b906000526020600020906004020160020160058581548110151561124257fe5b9060005260206000209060040201600301604051611263949392919061171c565b60405180910390a180806001019150506111a4565b600260009054906101000a900473ffffffffffffffffffffffffffffffffffffffff1673ffffffffffffffffffffffffffffffffffffffff16ff5b6000600580549050905090565b828054600181600116156101000203166002900490600052602060002090601f016020900481019282601f1061130157805160ff191683800117855561132f565b8280016001018555821561132f579182015b8281111561132e578251825591602001919060010190611313565b5b50905061133c9190611340565b5090565b61136291905b8082111561135e576000816000905550600101611346565b5090565b90565b60006113718235611878565b905092915050565b600082601f830112151561138c57600080fd5b813561139f61139a826117ee565b6117c1565b915080825260208301602083018583830111156113bb57600080fd5b6113c68382846118a2565b50505092915050565b60006113db8235611898565b905092915050565b6000602082840312156113f557600080fd5b600061140384828501611365565b91505092915050565b60006020828403121561141e57600080fd5b600082013567ffffffffffffffff81111561143857600080fd5b61144484828501611379565b91505092915050565b60008060006060848603121561146257600080fd5b600084013567ffffffffffffffff81111561147c57600080fd5b61148886828701611379565b935050602084013567ffffffffffffffff8111156114a557600080fd5b6114b186828701611379565b925050604084013567ffffffffffffffff8111156114ce57600080fd5b6114da86828701611379565b9150509250925092565b6000602082840312156114f657600080fd5b6000611504848285016113cf565b91505092915050565b61151681611842565b82525050565b61152581611862565b82525050565b600061153682611837565b80845261154a8160208601602086016118b1565b611553816118e4565b602085010191505092915050565b600061156c8261182c565b8084526115808160208601602086016118b1565b611589816118e4565b602085010191505092915050565b6000815460018116600081146115b457600181146115d457611615565b607f600283041680865260ff198316602087015260408601935050611615565b600282048086526020860195506115ea8561181a565b60005b8281101561160c578154818901526001820191506020810190506115ed565b80880195505050505b505092915050565b6116268161186e565b82525050565b6000602082019050611641600083018461150d565b92915050565b600060608201905061165c600083018661151c565b611669602083018561151c565b611676604083018461161d565b949350505050565b600060208201905081810360008301526116988184611561565b905092915050565b600060208201905081810360008301526116ba818461152b565b905092915050565b600060808201905081810360008301526116dc8187611561565b90506116eb602083018661161d565b81810360408301526116fd8185611561565b905081810360608301526117118184611561565b905095945050505050565b600060808201905081810360008301526117368187611597565b9050611745602083018661161d565b81810360408301526117578185611597565b9050818103606083015261176b8184611597565b905095945050505050565b600060208201905061178b600083018461161d565b92915050565b60006040820190506117a6600083018561161d565b81810360208301526117b88184611561565b90509392505050565b6000604051905081810181811067ffffffffffffffff821117156117e457600080fd5b8060405250919050565b600067ffffffffffffffff82111561180557600080fd5b601f19601f8301169050602081019050919050565b60008160005260206000209050919050565b600081519050919050565b600081519050919050565b600073ffffffffffffffffffffffffffffffffffffffff82169050919050565b60008115159050919050565b6000819050919050565b600073ffffffffffffffffffffffffffffffffffffffff82169050919050565b6000819050919050565b82818337600083830152505050565b60005b838110156118cf5780820151818401526020810190506118b4565b838111156118de576000848401525b50505050565b6000601f19601f83011690509190505600a265627a7a7230582046b081da6ba427ab8816615e690c17d1bd12a4c6a1cf916d2b6eb2efc98394466c6578706572696d656e74616cf50037",
  "source": "pragma solidity ^0.4.2;\npragma experimental ABIEncoderV2;\n\n/*\nElection contract that allows the owner to issue voting rights\nto anybody and also end the election and announce results\n*/\ncontract election {\n\n    struct Candidate {\n        string name;\n        uint voteCount;\n        string region;\n        string party;\n    }\n\n    struct Voter {\n        bool authorized;\n        bool voted;\n        uint vote;\n    }\n ////////////////////////////////////////////////////////////////////////////  \n\n/////////////////////////////////////////////////////////////////////////////\n  uint number=0;\n  struct verify{\n        uint voted;\n        string adhaar;\n        }\nverify [] public verif_lst;\n\n\n/// add user if he has not voted\n  function aadhar_user(string _adharr) ownerOnly public {\n      uint a;\n      for (uint i=0;i<verif_lst.length;i++){\n        if (keccak256(bytes(verif_lst[i].adhaar)) == keccak256(bytes(_adharr))){\n                    a=1;\n  }}\n  if (a!=1){\n    verif_lst.push(verify(1,_adharr));\n  }\n  }\n//get user status \n\n\n  function get_adhaar_status(string _adharr) ownerOnly public view returns (string) {\n    uint a;\n      for (uint i=0;i<verif_lst.length;i++){\n        if (keccak256(bytes(verif_lst[i].adhaar)) == keccak256(bytes(_adharr))){\n                    a=1;\n  }}\n   if (a==1){\n    return \"You Have already Voted\";\n  }\n  else{\n    return \"Not Voted\";\n  }\n\n      }\n\n\n\n    //////////////////////////////////////////////////////////////////////////////////////\n    \n\n    address public owner;\n    string public electionName;\n\n    mapping(address => Voter) public voters;\n    Candidate[] public candidates;\n\n    event ElectionResult(string candidateName, uint voteCount,string region,string party);\n\n    modifier ownerOnly() {\n        require(msg.sender == owner);\n        _;\n    }\n\n    function election() public {\n        owner = msg.sender;\n        \n    }\n\n    function addCandidate(string name,string region,string party) ownerOnly public {\n        candidates.push(Candidate(name, 0,region,party));\n    }\n\n    function authorize(address person) ownerOnly public {\n        voters[person].authorized = true;\n    }\n\n    function vote(string _cname,string _region,string _party) public {\n        //make sure voter is authorized and has not already voted\n                \n        require(!voters[msg.sender].voted);\n        require(voters[msg.sender].authorized);\n        uint  voteIndex=0;\n                \n        //get index\n        for (uint i=0; i < candidates.length; i++){\n                if(keccak256(bytes(candidates[i].region)) == keccak256(bytes(_region))){\n                  if(keccak256(bytes(candidates[i].name)) == keccak256(bytes(_cname))){\n                    if(keccak256(bytes(candidates[i].party)) == keccak256(bytes(_party))){\n                      voteIndex=i;}\n                  }}\n         }\n       \n        voters[msg.sender].vote = voteIndex;\n        voters[msg.sender].voted = true;\n\n        //increase candidate vote count by 1\n       \n        candidates[voteIndex].voteCount += 1;\n    }\n    \n         //////////////////////////////////////////////////////////\nfunction get_no_candidates() view public returns (uint) {\n        return candidates.length;\n}\n\nfunction end() ownerOnly public {\n        //announce each candidates results\n        for(uint i=0; i < candidates.length; i++) {\n\n            emit ElectionResult(candidates[i].name, candidates[i].voteCount,candidates[i].region,candidates[i].party);\n        }\n\n        //destroy the contract\n        selfdestruct(owner);\n    }\n}",
  "sourcePath": "/home/sairam/Desktop/ppfinal/Batch39/contracts/election.sol",
  "compiler": {
    "name": "solc",
    "version": "0.4.22+commit.4cb486ee.Emscripten.clang"
  },
  "schemaVersion": "3.4.4",
  "updatedAt": "2022-06-17T15:47:15.095Z",
  "networkType": "ethereum",
  "devdoc": {
    "methods": {}
  },
  "userdoc": {
    "methods": {
      "aadhar_user(string)": {
        "notice": "add user if he has not voted"
      },
      "get_no_candidates()": {
        "notice": "///////////////////////////////////////////////////////"
      }
    }
  }
}